:020000040800F2
:1000000000280020B1160008411600084716000815
:100010004D1600085316000859160008000000008D
:100020000000000000000000000000005F16000853
:100030006B16000800000000771600088316000801
:10004000F9160008F9160008F9160008F916000854
:10005000F9160008F9160008F9160008F916000844
:10006000F9160008F9160008F9160008F916000834
:10007000F9160008F9160008F9160008F916000824
:10008000F9160008F9160008F9160008F916000814
:10009000F9160008F9160008F9160008F916000804
:1000A000F9160008F9160008F9160008F9160008F4
:1000B00091160008F916000800000000F916000863
:1000C000F91600080000000000000000F916000802
:1000D00000000000F9160008F916000800000000F2
:1000E000F9160008F9160008F916000800000000CB
:1000F0000000000000000000000000000000000000
:0C01000000000000000000005FF808F1A3
:10010C0010B5054C237833B9044B13B10448AFF345
:10011C0000800123237010BD480000200000000067
:10012C00482D000808B5034B1BB103490348AFF336
:10013C00008008BD000000004C000020482D000885
:10014C0080B582B000AF78607B68092B00F2948098
:10015C0001A252F823F000BF8D010008A70100088E
:10016C00C1010008DB010008F50100080F020008BE
:10017C0029020008430200085D0200086B02000817
:10018C0000224FF4FC51454801F0B5FD01224FF41B
:10019C000051424801F0AFFD7BE000224FF440716A
:1001AC003E4801F0A8FD01224FF472513B4801F08A
:1001BC00A2FD6EE000224FF43651384801F09BFD51
:1001CC0001224FF49051354801F095FD61E0002279
:1001DC004FF41E51314801F08EFD01224FF4C051F5
:1001EC002E4801F088FD54E000224FF44C512B486E
:1001FC0001F081FD01224FF44861284801F07BFD9C
:10020C0047E000224FF45A51244801F074FD0122BA
:10021C004FF41061214801F06EFD3AE000224FF4DA
:10022C007A511E4801F067FD01224FF480711B4882
:10023C0001F061FD2DE000224FF46071174801F0D0
:10024C005AFD01224FF47051144801F054FD20E086
:10025C0000224FF47E51114801F04DFD19E00022AF
:10026C004FF47E510D4801F046FD01224FF4006120
:10027C000A4801F040FD0CE000224FF4F851074809
:10028C0001F039FD01224FF40251044801F033FD15
:10029C0000BF00BF0837BD4680BD00BF000801404D
:1002AC0080B582B000AF78607B68092B00F2948037
:1002BC0001A252F823F000BFED020008070300086A
:1002CC00210300083B030008550300086F030008D6
:1002DC0089030008A3030008BD030008CB03000832
:1002EC0000224FF4FC51454801F005FD01224FF46A
:1002FC000051424801F0FFFC7BE000224FF44071BA
:10030C003E4801F0F8FC01224FF472513B4801F0D9
:10031C00F2FC6EE000224FF43651384801F0EBFC51
:10032C0001224FF49051354801F0E5FC61E00022C8
:10033C004FF41E51314801F0DEFC01224FF4C05144
:10034C002E4801F0D8FC54E000224FF44C512B48BD
:10035C0001F0D1FC01224FF44861284801F0CBFC9C
:10036C0047E000224FF45A51244801F0C4FC01220A
:10037C004FF41061214801F0BEFC3AE000224FF42A
:10038C007A511E4801F0B7FC01224FF480711B48D2
:10039C0001F0B1FC2DE000224FF46071174801F020
:1003AC00AAFC01224FF47051144801F0A4FC20E087
:1003BC0000224FF47E51114801F09DFC19E00022FF
:1003CC004FF47E510D4801F096FC01224FF4006170
:1003DC000A4801F090FC0CE000224FF4F851074859
:1003EC0001F089FC01224FF40251044801F083FC16
:1003FC0000BF00BF0837BD4680BD00BF000C0140E8
:10040C0080B400AF034B01221A6000BFBD4680BC14
:10041C00704700BF6400002080B500AF1F4B1B6805
:10042C001F4A13601F4B1B681C4A13604FF400518A
:10043C001D4801F049FC03461A461A4B1A60184B2A
:10044C001A68164B1B689A4225D1144B1A68154B27
:10045C001B689A421FD1154B1A68124B1B689A42A3
:10046C000DD0104B1B68114A13600E4B1B68002BF0
:10047C0011D1FFF7C5FF0E4BC8221A600BE00C4BD5
:10048C001B68013B0A4A1360094B1B68002B02D105
:10049C00074BC8221A6000BF80BD00BF04000020BB
:1004AC000000002008000020001001400C0000207B
:1004BC001000002080B400AF034B01221A6000BF73
:1004CC00BD4680BC704700BF6800002080B400AF00
:1004DC00034B01221A6000BFBD4680BC704700BFB1
:1004EC006C00002080B500AF274B1B68274A1360B7
:1004FC00274B1B68244A13604FF48041254801F0B8
:10050C00E3FB03461A46224B1A60204B1A681E4B1B
:10051C001B689A4236D11C4B1A681D4B1B689A42B9
:10052C0030D11D4B1A681A4B1B689A420DD0184BD0
:10053C001B68194A1360164B1B68002B17D1FFF769
:10054C00B9FF164B64221A6011E0144B1B68013B77
:10055C00124A1360114B1B68002B08D10C4B1B6803
:10056C00002B01D1FFF7B2FF0C4B64221A60084B31
:10057C001B68012B06D10A4B1B68012B02D1084BBF
:10058C0000221A6000BF80BD18000020140000205B
:10059C001C0000200010014020000020240000203E
:1005AC006C00002080B400AF034B01221A6000BF26
:1005BC00BD4680BC704700BF7000002080B500AF06
:1005CC001F4B1B681F4A13601F4B1B681C4A136090
:1005DC004FF400411D4801F077FB03461A461A4BB5
:1005EC001A60184B1A68164B1B689A4225D1144B8B
:1005FC001A68154B1B689A421FD1154B1A68124B7F
:10060C001B689A420DD0104B1B68114A13600E4B9D
:10061C001B68002B11D1FFF7C5FF0E4BC8221A60C7
:10062C000BE00C4B1B68013B0A4A1360094B1B681F
:10063C00002B02D1074BC8221A6000BF80BD00BF3F
:10064C002C00002028000020300000200010014069
:10065C00340000203800002080B58EB000AF01F0CF
:10066C0047F800F0A3FD00F029FE00F0DBFDB348D5
:10067C0001F0A0FF00233B630123FB620023BB625C
:10068C0000237B6200233B620123FB610523BB61DA
:10069C0002237B6103233B610123FB600223BB60CC
:1006AC00BB697B603B693B607A68A54B83FB02139B
:1006BC009910D317C91A0B469B000B445B00D11A37
:1006CC000846FFF73DFD3A689D4B83FB02139910DA
:1006DC00D317C91A0B469B000B445B00D11A084672
:1006EC00FFF7DEFD642000F079FEBB69642202FB9B
:1006FC0003F3184600F0A0FE3B69642202FB03F3EF
:10070C00184600F0C7FE642000F0F2FE642000F0F2
:10071C001DFF00224FF480418A4801F0ECFA0022C0
:10072C004FF40041874801F0E6FA00224FF4804173
:10073C00854801F0E0FA00224FF40041824801F0B4
:10074C00DAFA824B1B68012B1ED1804B00221A60F7
:10075C00FB6A0133FB62FB6A042B01DD0123FB62A4
:10076C00FB6A022B01D101237B62FB6A032B01D1B3
:10077C0001233B62FB6A042B01D10123FB61FB6A61
:10078C00012B01D10123BB62FB6A012B40F05D827E
:10079C00BB6A002B56D00023BB620123FB600223F3
:1007AC00BB60BB697B603B693B607A68644B83FBD5
:1007BC0002139910D317C91A0B469B000B445B000C
:1007CC00D11A0846FFF7BCFC3A685D4B83FB021359
:1007DC009910D317C91A0B469B000B445B00D11A16
:1007EC000846FFF75DFD642000F0F8FDBB6964224C
:1007FC0002FB03F3184600F01FFE3B69642202FB68
:10080C0003F3184600F046FE642000F071FE6420ED
:10081C0000F09CFE00224FF480414A4801F06BFA34
:10082C0000224FF40041474801F065FA00224FF4D2
:10083C008041454801F05FFA00224FF400414248E4
:10084C0001F059FA3A697B691344BA699A420BD19F
:10085C003F4B1B68012B0CD101213A4801F063FA84
:10086C00642000F0BBFD04E001220121354801F0B9
:10087C0042FAFB68032B43D0FB68032B6CDCFB6850
:10088C00012B03D0FB68022B1DD065E00122022155
:10089C002C4801F030FA002204212A4801F02BFAEE
:1008AC0000220821274801F026FA2A4B1B68012B4D
:1008BC0062D13B69642202FB03F3184600F0BCFDD5
:1008CC000223FB6058E0002202211E4801F013FABB
:1008DC00002204211B4801F00EFA012208211948BC
:1008EC0001F009FA1B4B1B68012B47D17B69642271
:1008FC0002FB03F3184600F09FFD0323FB603DE071
:10090C00002202210F4801F0F6F9012204210D48C2
:10091C0001F0F1F9002208210A4801F0ECF90D4B25
:10092C001B68012B2CD1BB69642202FB03F3184614
:10093C0000F082FD0123FB6022E000BF7400002068
:10094C006766666600080140000C014064000020E8
:10095C00C0000020C800002001220221454801F0FF
:10096C00CAF901220421434801F0C5F901220821EA
:10097C00404801F0C0F904E000BF02E000BF00E015
:10098C0000BFBB68032B43D0BB68032B5DDCBB688B
:10099C00012B03D0BB68022B1DD056E00122102185
:1009AC00344801F0A8F900222021324801F0A3F9C3
:1009BC00002240212F4801F09EF92F4B1B68012B80
:1009CC0053D13B69642202FB03F3184600F062FD2D
:1009DC000223BB6049E000221021264801F08BF96C
:1009EC0000222021234801F086F9012240212148D0
:1009FC0001F081F9204B1B68012B38D17B696422F3
:100A0C0002FB03F3184600F045FD0323BB602EE008
:100A1C0000221021174801F06EF9012220211548FF
:100A2C0001F069F900224021124801F064F9124BDF
:100A3C001B68012B22D1BB69642202FB03F318460D
:100A4C0000F028FD0123BB6018E0012210210948A9
:100A5C0001F051F901222021064801F04CF9012244
:100A6C004021044801F047F909E000BF07E000BF4E
:100A7C0005E000BF00080140D000002000BFB84BCB
:100A8C001B68012B6ED17B68013B7B607B68002B64
:100A9C0011D17A68B34B83FB02139910D317C91A7F
:100AAC000B469B000B445B00D11A0846FFF748FB32
:100ABC00142000F01DFD7B68002B11DD7A68A94B1A
:100ACC0083FB02139910D317C91A0B469B000B44D6
:100ADC005B00D11A0846FFF733FB642000F008FDD9
:100AEC007B68002B3EDAFB68022B10D13B697B60E4
:100AFC007A689C4B83FB02139910D317C91A0B46C7
:100B0C009B000B445B00D11A0846FFF719FBFB68EE
:100B1C00032B10D17B697B607A68924B83FB0213A9
:100B2C009910D317C91A0B469B000B445B00D11AC2
:100B3C000846FFF705FBFB68012B10D1BB697B60F6
:100B4C007A68884B83FB02139910D317C91A0B468A
:100B5C009B000B445B00D11A0846FFF7F1FA5020BA
:100B6C0000F0C6FC804B1B68012B6ED13B68013B2F
:100B7C003B603B68002B11D13A687A4B83FB021324
:100B8C009910D317C91A0B469B000B445B00D11A62
:100B9C000846FFF785FB142000F0D8FC3B68002BBF
:100BAC0011DD3A686F4B83FB02139910D317C91AE6
:100BBC000B469B000B445B00D11A0846FFF770FBF9
:100BCC00642000F0C3FC3B68002B3EDABB68022BB0
:100BDC0010D13B693B603A68624B83FB021399105E
:100BEC00D317C91A0B469B000B445B00D11A08465D
:100BFC00FFF756FBBB68032B10D17B693B603A684F
:100C0C00584B83FB02139910D317C91A0B469B0040
:100C1C000B445B00D11A0846FFF742FBBB68012B63
:100C2C0010D1BB693B603A684E4B83FB02139910A1
:100C3C00D317C91A0B469B000B445B00D11A08460C
:100C4C00FFF72EFB502000F081FCFB6A022B40F0DA
:100C5C00DE807B6A002B5BD000237B6200220121AB
:100C6C00424801F048F801220221404801F043F8C3
:100C7C00002204213D4801F03EF8002208213B48A7
:100C8C0001F039F801221021384801F034F8002223
:100C9C002021364801F02FF800224021334801F082
:100CAC002AF801224FF48041304801F024F8002248
:100CBC004FF400412D4801F01EF800224FF4804102
:100CCC002B4801F018F800224FF40041284801F09D
:100CDC0012F8BB697B637A6B224B83FB021399106E
:100CEC00D317C91A0B469B000B445B00D11A08465C
:100CFC00FFF726FA00233B630220FFF7D1FA3220DC
:100D0C0000F06CFB192000F097FB322000F0C2FBC6
:100D1C00184B1B68012B0ED10121144801F003F86C
:100D2C000221124800F0FFFF1021104800F0FBFFD9
:100D3C00322000F053FB104B1B68012B3CD13B6B5A
:100D4C00002B1BD101233B637B6B064A82FB0312F6
:100D5C009210DB17D31A1846FFF7F2F91FE000BF09
:100D6C00D800002067666666E0000020000801409D
:100D7C00000C0140C0000020C800002000233B6391
:100D8C007A6B684B83FB02139910D317C91A0B4665
:100D9C009B000B445B00D11A0846FFF7D1F94FF4C6
:100DAC008041614800F0BFFF4FF400415E4800F005
:100DBC00BAFF192000F040FB5C4B1B68012B0AD1D9
:100DCC005A4B00221A607B6B01337B637B6B632B6A
:100DDC0001DD01237B63564B1B68012B0ED1554B58
:100DEC001B68012B0AD17B6B01337B637B6B632B01
:100DFC0001DD01237B63322000F04CFB4E4B1B6862
:100E0C00012B04D14C4B00221A607B6BBB61FB6A3B
:100E1C00032B40F0E2803B6A002B5BD000233B624B
:100E2C0000220121404800F066FF002202213E48CA
:100E3C0000F061FF012204213B4800F05CFF00221E
:100E4C000821394800F057FF00221021364800F0E5
:100E5C0052FF01222021344800F04DFF0022402196
:100E6C00314800F048FF01224FF480412E4800F039
:100E7C0042FF00224FF400412B4800F03CFF0022BF
:100E8C004FF480412D4800F036FF00224FF4004112
:100E9C002A4800F030FF7B697B637A6B214B83FB24
:100EAC0002139910D317C91A0B469B000B445B0015
:100EBC00D11A0846FFF744F900233B630320FFF7E0
:100ECC00EFF9322000F08AFA192000F0B5FA32203E
:100EDC0000F0E0FA1A4B1B68012B0ED101211248CD
:100EEC0000F021FF0421104800F01DFF20210E48C6
:100EFC0000F019FF322000F071FA124B1B68012B25
:100F0C0040D13B6B002B1FD101233B637B6B054A0C
:100F1C0082FB03129210DB17D31A1846FFF710F955
:100F2C0023E000BF67666666000801406800002089
:100F3C006C000020D000002070000020000C01404C
:100F4C00C0000020C800002000233B637A6B8E4B4E
:100F5C0083FB02139910D317C91A0B469B000B4441
:100F6C005B00D11A0846FFF7EBF84FF48041874835
:100F7C0000F0D9FE4FF40041844800F0D4FE192053
:100F8C0000F05AFA824B1B68012B0AD1804B0022CD
:100F9C001A607B6B01337B637B6B632B01DD01235D
:100FAC007B637C4B1B68012B0ED17B4B1B68012B8D
:100FBC000AD17B6B01337B637B6B632B01DD0123DC
:100FCC007B63322000F066FA744B1B68012B04D152
:100FDC00724B00221A607B6B7B61FB6A042B7FF4E3
:100FEC00B0ABFB69002B5BD00023FB61002201211D
:100FFC00664800F080FE00220221644800F07BFE6F
:10100C0000220421614800F076FE012208215F488D
:10101C0000F071FE002210215C4800F06CFE0022F2
:10102C0020215A4800F067FE01224021574800F069
:10103C0062FE01224FF48041544800F05CFE002215
:10104C004FF40041514800F056FE00224FF480410D
:10105C00534800F050FE00224FF40041504800F07D
:10106C004AFE3B697B637A6B474B83FB02139910F7
:10107C00D317C91A0B469B000B445B00D11A0846C8
:10108C00FFF75EF800233B630420FFF709F93220D9
:10109C0000F0A4F9192000F0CFF9322000F0FAF991
:1010AC00404B1B68012B0ED10121384800F03BFE50
:1010BC000821364800F037FE4021344800F033FE5A
:1010CC00322000F08BF9384B1B68012B2DD13B6B78
:1010DC00002B0CD101233B637B6B2B4A82FB03124D
:1010EC009210DB17D31A1846FFF72AF810E00023EA
:1010FC003B637A6B244B83FB02139910D317C91AE9
:10110C000B469B000B445B00D11A0846FFF718F8FE
:10111C004FF480411D4800F006FE4FF400411B487F
:10112C0000F001FE192000F087F9194B1B68012B08
:10113C000AD1174B00221A607B6B01337B637B6BEC
:10114C00632B01DD01237B63124B1B68012B0ED13A
:10115C00114B1B68012B0AD17B6B01337B637B6BBF
:10116C00632B01DD01237B63322000F093F90B4BE1
:10117C001B68012B7FF4E5AA084B00221A607B6BDD
:10118C003B61FFF7DEBA00BF676666660008014088
:10119C00680000206C000020D000002070000020AF
:1011AC00000C0140C0000020C800002080B590B0A9
:1011BC0000AF07F1180328220021184601F092FD18
:1011CC003B1D00221A605A609A60DA601A61022391
:1011DC00BB610123BB621023FB6200237B6307F11D
:1011EC001803184600F0B8FD0346002B01D000F0A0
:1011FC00EFF80F237B600023BB600023FB60002310
:10120C003B6100237B613B1D0021184601F026F851
:10121C000346002B01D000F0DBF800BF4037BD4681
:10122C0080BD000080B586B000AF07F10803002236
:10123C001A605A609A60DA603B4600221A605A6063
:10124C001D4B4FF080421A601B4B41F63F725A60A7
:10125C00194B00229A60184B0922DA60164B0022B7
:10126C001A61154B00229A61134801F053F9034699
:10127C00002B01D000F0ACF84FF48053BB6007F1A9
:10128C00080319460C4801F0E9FA0346002B01D07B
:10129C0000F09EF800233B6000237B603B46194620
:1012AC00054801F0B5FC0346002B01D000F090F886
:1012BC0000BF1837BD4680BD7400002080B588B0D3
:1012CC0000AF07F1100300221A605A609A60DA60CE
:1012DC002F4B9B692E4A43F0100393612C4B9B6957
:1012EC0003F01003FB60FB68294B9B69284A43F011
:1012FC0004039361264B9B6903F00403BB60BB683A
:10130C00234B9B69224A43F008039361204B9B6952
:10131C0003F008037B607B6800224FF6FF711D48C9
:10132C0000F0E9FC00224FF680711B4800F0E3FC52
:10133C004FF460433B6100237B610123BB6107F1E8
:10134C0010031946154800F043FB4FF6FF733B6141
:10135C0001237B610023BB610223FB6107F11003B6
:10136C0019460C4800F034FB4FF680733B610123A7
:10137C007B610023BB610223FB6107F1100319465B
:10138C00054800F025FB00BF2037BD4680BD00BFDF
:10139C000010024000080140000C01400010014008
:1013AC0080B582B000AF786000F02CF800F058F8EF
:1013BC0000F084F800F0B0F800F0DCF8FFF72CF83F
:1013CC00FFF790F8FFF7FAF800BF0837BD4680BD6D
:1013DC0080B400AF72B600BFFEE7000080B483B0EB
:1013EC0000AF7860054A7B681360054B00221A60D9
:1013FC0000BF0C37BD4680BC704700BFBC0000204E
:10140C00C000002080B400AF094B1B68002B0BDD23
:10141C00074B1B68013B064A1360054B1B68002BEE
:10142C0002DC044B01221A6000BFBD4680BC704731
:10143C00BC000020C000002080B483B000AF7860F6
:10144C00054A7B681360054B00221A6000BF0C37FD
:10145C00BD4680BC704700BFC4000020C8000020FF
:10146C0080B400AF094B1B68002B0BDD074B1B68CE
:10147C00013B064A1360054B1B68002B02DC044B36
:10148C0001221A6000BFBD4680BC7047C40000201A
:10149C00C800002080B483B000AF7860054A7B6838
:1014AC001360054B00221A6000BF0C37BD4680BC90
:1014BC00704700BFCC000020D000002080B400AFEB
:1014CC00094B1B68002B0BDD074B1B68013B064AC5
:1014DC001360054B1B68002B02DC044B01221A60C5
:1014EC0000BFBD4680BC7047CC000020D00000205F
:1014FC0080B483B000AF7860054A7B681360054BFD
:10150C0000221A6000BF0C37BD4680BC704700BF7C
:10151C00D4000020D800002080B400AF094B1B6819
:10152C00002B0BDD074B1B68013B064A1360054B78
:10153C001B68002B02DC044B01221A6000BFBD4665
:10154C0080BC7047D4000020D800002080B483B049
:10155C0000AF7860054A7B681360054B00221A6067
:10156C0000BF0C37BD4680BC704700BFDC000020BC
:10157C00E000002080B400AF094B1B68002B0BDD92
:10158C00074B1B68013B064A1360054B1B68002B7D
:10159C0002DC044B01221A6000BFBD4680BC7047C0
:1015AC00DC000020E000002080B483B000AF0E4BC4
:1015BC009B690D4A43F0010393610B4B9B6903F04C
:1015CC0001037B607B68084BDB69074A43F080535F
:1015DC00D361054BDB6903F080533B603B6800BF74
:1015EC000C37BD4680BC70470010024080B584B0FB
:1015FC0000AF78607B681B68B3F1804F13D10C4B44
:10160C00DB690B4A43F00103D361094BDB6903F03F
:10161C000103FB60FB68002200211C2000F0A1F9F3
:10162C001C2000F0BAF900BF1037BD4680BD00BFCA
:10163C000010024080B400AFFEE780B400AFFEE7BC
:10164C0080B400AFFEE780B400AFFEE780B400AF1B
:10165C00FEE780B400AF00BFBD4680BC704780B4CD
:10166C0000AF00BFBD4680BC704780B400AF00BF68
:10167C00BD4680BC704780B500AF00F07FF800BF5E
:10168C0080BD000080B500AF024800F0DFFF00BF56
:10169C0080BD00BF7400002080B400AF00BFBD4609
:1016AC0080BC7047FFF7F8FF0B480C490C4A00232D
:1016BC0002E0D458C4500433C4188C42F9D3094AFC
:1016CC00094C002301E013600432A242FBD301F069
:1016DC0011FBFEF7C1FF70470000002048000020FE
:1016EC008C2D000848000020E8000020FEE70000D8
:1016FC0080B500AF084B1B68074A43F0100313601A
:10170C00032000F023F90F2000F008F8FFF74CFF3E
:10171C000023184680BD00BF0020024080B582B077
:10172C0000AF7860124B1A68124B1B7819464FF4B5
:10173C007A73B3FBF1F3B2FBF3F3184600F03BF909
:10174C000346002B01D001230EE07B680F2B0AD837
:10175C00002279684FF0FF3000F003F9064A7B68ED
:10176C001360002300E0012318460837BD4680BDF6
:10177C003C000020440000204000002080B400AF5A
:10178C00054B1B781A46054B1B681344034A136020
:10179C0000BFBD4680BC704744000020E400002020
:1017AC0080B400AF024B1B681846BD4680BC704726
:1017BC00E400002080B485B000AF78607B6803F053
:1017CC000703FB600C4BDB68BB60BA684FF6FF038A
:1017DC001340BB60FB681A02BB68134343F0BF6342
:1017EC0043F40033BB60044ABB68D36000BF1437BA
:1017FC00BD4680BC704700BF00ED00E080B400AF78
:10180C00044BDB681B0A03F007031846BD4680BC7B
:10181C00704700BF00ED00E080B483B000AF03461A
:10182C00FB7197F90730002B0BDBFB7903F01F02E0
:10183C00064997F907305B09012000FA02F241F8DA
:10184C00232000BF0C37BD4680BC704700E100E090
:10185C0080B483B000AF03463960FB7197F9073051
:10186C00002B0ADB3B68DAB20C4997F907301201FE
:10187C00D2B20B4483F800230AE03B68DAB2084981
:10188C00FB7903F00F03043B1201D2B20B441A761E
:10189C0000BF0C37BD4680BC704700BF00E100E0C4
:1018AC0000ED00E080B489B000AFF860B9607A60F8
:1018BC00FB6803F00703FB61FB69C3F10703042B0F
:1018CC0028BF0423BB61FB690433062B02D9FB69D7
:1018DC00033B00E000237B614FF0FF32BB6902FA4F
:1018EC0003F3DA43BB681A407B699A404FF0FF312F
:1018FC007B6901FA03F3D9437B680B401343184609
:10190C002437BD4680BC704780B582B000AF78608C
:10191C007B68013BB3F1807F01D301230FE00A4ABE
:10192C007B68013B53600F214FF0FF30FFF790FFB6
:10193C00054B00229A60044B07221A6000231846BC
:10194C000837BD4680BD00BF10E000E080B582B016
:10195C0000AF78607868FFF72DFF00BF0837BD46F1
:10196C0080BD80B586B000AF0346B9607A60FB736A
:10197C0000237B61FFF742FF78617A68B968786968
:10198C00FFF790FF024697F90F3011461846FFF704
:10199C005FFF00BF1837BD4680BD80B582B000AF79
:1019AC000346FB7197F907301846FFF735FF00BF68
:1019BC000837BD4680BD80B582B000AF78607868CE
:1019CC00FFF7A2FF034618460837BD4680BD00004E
:1019DC0080B48BB000AF7860396000237B62002349
:1019EC003B6261E101227B6A02FA03F3FB613B6813
:1019FC001B68FA691340BB61BA69FB699A4240F0F3
:101A0C0050813B685B68974A93425ED0954A9342FB
:101A1C0075D8954A934258D0934A93426FD8934ABB
:101A2C00934252D0914A934269D8914A93424CD0F6
:101A3C008F4A934263D88F4A934246D08D4A934241
:101A4C005DD8122B2AD8122B59D801A252F823F0A8
:101A5C00D71A0008B11A0008C31A0008051B0008A1
:101A6C000B1B00080B1B00080B1B00080B1B0008B2
:101A7C000B1B00080B1B00080B1B00080B1B0008A2
:101A8C000B1B00080B1B00080B1B00080B1B000892
:101A9C000B1B0008B91A0008CD1A0008764A9342AD
:101AAC0013D02CE03B68DB683B6229E03B68DB68C9
:101ABC0004333B6224E03B68DB6808333B621FE085
:101ACC003B68DB680C333B621AE03B689B68002B7D
:101ADC0002D104233B6213E03B689B68012B05D1C8
:101AEC0008233B627B68FA691A6109E008233B62B0
:101AFC007B68FA695A6103E000233B6200E000BF97
:101B0C00BB69FF2B01D87B6801E07B6804337B61E8
:101B1C00BB69FF2B02D87B6A9B0002E07B6A083B07
:101B2C009B003B617B691A680F213B6901FA03F347
:101B3C00DB431A40396A3B6901FA03F31A437B69A8
:101B4C001A603B685B6803F08053002B00F0A9809F
:101B5C004A4B9B69494A43F001039361474B9B698C
:101B6C0003F00103BB60BB68454A7B6A9B080233E8
:101B7C0052F82330FB607B6A03F003039B000F22B7
:101B8C0002FA03F3DB43FA681340FB607B683D4ABF
:101B9C0093420DD07B683C4A934207D07B683B4A0A
:101BAC00934201D1022304E0032302E0012300E06D
:101BBC0000237A6A02F0030292009340FA681343FE
:101BCC00FB602F497B6A9B080233FA6841F823209B
:101BDC003B685B6803F48013002B06D02C4B9A688F
:101BEC002B49BB6913438B6006E0294B9A68BB6990
:101BFC00DB43274913408B603B685B6803F400139D
:101C0C00002B06D0224BDA682149BB691343CB6009
:101C1C0006E01F4BDA68BB69DB431D491340CB6000
:101C2C003B685B6803F40033002B06D0184B5A68F2
:101C3C001749BB6913434B6006E0154B5A68BB69E7
:101C4C00DB43134913404B603B685B6803F4803300
:101C5C00002B1FD00E4B1A680D49BB6913430B6048
:101C6C001FE000BF000032100000311000002210F5
:101C7C000000211000001210000011100010024092
:101C8C000000014000080140000C01400010014020
:101C9C00000401400B4B1A68BB69DB430949134034
:101CAC000B607B6A01337B623B681A687B6A22FAA1
:101CBC0003F3002B7FF496AE00BF00BF2C37BD465C
:101CCC0080BC70470004014080B485B000AF7860E0
:101CDC000B467B807B689A687B881340002B02D074
:101CEC000123FB7301E00023FB73FB7B18461437C5
:101CFC00BD4680BC704780B483B000AF78600B46A3
:101D0C007B8013467B707B78002B03D07A887B68B2
:101D1C001A6103E07B881A047B681A6100BF0C37D8
:101D2C00BD4680BC704780B485B000AF78600B4670
:101D3C007B807B68DB68FB607A88FB6813401A0445
:101D4C00FB68D9437B880B401A437B681A6100BF40
:101D5C001437BD4680BC704780B586B000AF786044
:101D6C007B68002B01D1012372E27B681B6803F0B6
:101D7C000103002B00F08780924B5B6803F00C038F
:101D8C00042B0CD08F4B5B6803F00C03082B12D187
:101D9C008C4B5B6803F48033B3F5803F0BD1894BDC
:101DAC001B6803F40033002B6CD07B685B68002B42
:101DBC0068D101234CE27B685B68B3F5803F06D1A8
:101DCC00804B1B687F4A43F4803313602EE07B68A2
:101DDC005B68002B0CD17B4B1B687A4A23F4803355
:101DEC001360784B1B68774A23F4802313601DE043
:101DFC007B685B68B3F5A02F0CD1724B1B68714AE2
:101E0C0043F4802313606F4B1B686E4A43F480339A
:101E1C0013600BE06B4B1B686A4A23F4803313602E
:101E2C00684B1B68674A23F4802313607B685B68EC
:101E3C00002B13D0FFF7B4FC386108E0FFF7B0FCBF
:101E4C0002463B69D31A642B01D9032300E25D4B94
:101E5C001B6803F40033002BF0D014E0FFF7A0FC58
:101E6C00386108E0FFF79CFC02463B69D31A642BEF
:101E7C0001D90323ECE1534B1B6803F40033002B13
:101E8C00F0D100E000BF7B681B6803F00203002B5D
:101E9C0063D04C4B5B6803F00C03002B0BD0494B0D
:101EAC005B6803F00C03082B1CD1464B5B6803F4F6
:101EBC008033002B16D1434B1B6803F00203002B1D
:101ECC0005D07B681B69012B01D00123C0E13D4B80
:101EDC001B6823F0F8027B685B69DB00394913430C
:101EEC000B603AE07B681B69002B20D0364B01223B
:101EFC001A60FFF755FC386108E0FFF751FC024609
:101F0C003B69D31A022B01D90323A1E12D4B1B688A
:101F1C0003F00203002BF0D02A4B1B6823F0F802CD
:101F2C007B685B69DB00274913430B6015E0264B8C
:101F3C0000221A60FFF734FC386108E0FFF730FC30
:101F4C0002463B69D31A022B01D9032380E11D4BB6
:101F5C001B6803F00203002BF0D17B681B6803F0B5
:101F6C000803002B3AD07B689B69002B19D0174BC8
:101F7C0001221A60FFF714FC386108E0FFF710FC2F
:101F8C0002463B69D31A022B01D9032360E10D4BA6
:101F9C005B6A03F00203002BF0D0012000F09CFAE6
:101FAC001CE00A4B00221A60FFF7FAFB38610FE0C5
:101FBC00FFF7F6FB02463B69D31A022B08D9032321
:101FCC0046E100BF00100240000042428004424241
:101FDC00924B5B6A03F00203002BE9D17B681B6810
:101FEC0003F00403002B00F0A6800023FB758B4B41
:101FFC00DB6903F08053002B0DD1884BDB69874ADA
:10200C0043F08053D361854BDB6903F08053BB6095
:10201C00BB680123FB75824B1B6803F48073002B98
:10202C0018D17F4B1B687E4A43F480731360FFF713
:10203C00B7FB386108E0FFF7B3FB02463B69D31AE4
:10204C00642B01D9032303E1754B1B6803F48073E4
:10205C00002BF0D07B68DB68012B06D16F4B1B6A21
:10206C006E4A43F0010313622DE07B68DB68002BA2
:10207C000CD16A4B1B6A694A23F001031362674B4C
:10208C001B6A664A23F0040313621CE07B68DB685E
:10209C00052B0CD1614B1B6A604A43F0040313629D
:1020AC005E4B1B6A5D4A43F0010313620BE05B4B12
:1020BC001B6A5A4A23F001031362584B1B6A574A96
:1020CC0023F0040313627B68DB68002B15D0FFF749
:1020DC0067FB38610AE0FFF763FB02463B69D31AE2
:1020EC0041F28832934201D90323B1E04B4B1B6A76
:1020FC0003F00203002BEED014E0FFF751FB386124
:10210C000AE0FFF74DFB02463B69D31A41F28832D5
:10211C00934201D903239BE0404B1B6A03F002035B
:10212C00002BEED1FB7D012B05D13C4BDB693B4AEF
:10213C0023F08053D3617B68DB69002B00F0878030
:10214C00364B5B6803F00C03082B61D07B68DB69B2
:10215C00022B46D1334B00221A60FFF721FB38616A
:10216C0008E0FFF71DFB02463B69D31A022B01D98D
:10217C0003236DE0294B1B6803F00073002BF0D197
:10218C007B681B6AB3F5803F08D1244B5B6823F452
:10219C0000327B689B68214913434B601F4B5B6883
:1021AC0023F474127B68196A7B685B6A0B431B49C6
:1021BC0013434B601B4B01221A60FFF7F1FA386195
:1021CC0008E0FFF7EDFA02463B69D31A022B01D95E
:1021DC0003233DE0114B1B6803F00073002BF0D080
:1021EC0035E0104B00221A60FFF7DAFA386108E08C
:1021FC00FFF7D6FA02463B69D31A022B01D9032307
:10220C0026E0064B1B6803F00073002BF0D11EE098
:10221C007B68DB69012B07D1012319E00010024018
:10222C0000700040600042420B4B5B68FB60FB6837
:10223C0003F480327B681B6A9A4206D1FB6803F474
:10224C0070127B685B6A9A4201D0012300E0002384
:10225C0018461837BD4680BD0010024080B584B0CA
:10226C0000AF786039607B68002B01D10123D0E08E
:10227C006A4B1B6803F007033A689A4210D9674B04
:10228C001B6823F0070265493B6813430B60634BE3
:10229C001B6803F007033A689A4201D00123B8E0A7
:1022AC007B681B6803F00203002B20D07B681B6843
:1022BC0003F00403002B05D0594B5B68584A43F4D8
:1022CC00E06353607B681B6803F00803002B05D0A8
:1022DC00534B5B68524A43F460535360504B5B68FA
:1022EC0023F0F0027B689B684D4913434B607B687D
:1022FC001B6803F00103002B40D07B685B68012B4B
:10230C0007D1474B1B6803F40033002B15D1012375
:10231C007FE07B685B68022B07D1414B1B6803F0A5
:10232C000073002B09D1012373E03D4B1B6803F0B4
:10233C000203002B01D101236BE0394B5B6823F0C6
:10234C0003027B685B68364913434B60FFF728FA3E
:10235C00F8600AE0FFF724FA0246FB68D31A41F250
:10236C008832934201D9032353E02D4B5B6803F071
:10237C000C027B685B689B009A42EBD1274B1B6875
:10238C0003F007033A689A4210D2244B1B6823F0DF
:10239C00070222493B6813430B60204B1B6803F078
:1023AC0007033A689A4201D0012332E07B681B682C
:1023BC0003F00403002B08D0194B5B6823F4E06294
:1023CC007B68DB68164913434B607B681B6803F022
:1023DC000803002B09D0124B5B6823F460527B6816
:1023EC001B69DB000E4913434B6000F021F80246D9
:1023FC000B4B5B681B0903F00F030A49CB5C22FAF9
:10240C0003F3094A1360094B1B681846FFF786F95A
:10241C00002318461037BD4680BD00BF0020024087
:10242C0000100240602D00083C00002040000020FD
:10243C0080B487B000AF0023FB600023BB60002397
:10244C007B6100237B6000233B611E4B5B68FB6060
:10245C00FB6803F00C03042B02D0082B03D027E0FD
:10246C00194B3B6127E0FB689B0C03F00F03174AE9
:10247C00D35C7B60FB6803F48033002B10D0114BD2
:10248C005B685B0C03F00103114AD35CBB607B6897
:10249C000D4A03FB02F2BB68B2FBF3F37B6104E071
:1024AC007B680C4A02FB03F37B617B693B6102E0B6
:1024BC00054B3B6100BF3B6918461C37BD4680BCD1
:1024CC00704700BF0010024000127A00702D000807
:1024DC00802D000800093D0080B485B000AF786005
:1024EC000A4B1B680A4AA2FB03235B0A7A6802FBAD
:1024FC0003F3FB6000BFFB685A1EFA60002BF9D196
:10250C0000BF00BF1437BD4680BC70473C000020A4
:10251C00D34D621080B582B000AF78607B68002B21
:10252C0001D1012341E07B6893F83D30DBB2002BF5
:10253C0006D17B68002283F83C207868FFF756F8B8
:10254C007B68022283F83D207B681A687B68043321
:10255C001946104600F06EFA7B68012283F846207B
:10256C007B68012283F83E207B68012283F83F20A0
:10257C007B68012283F840207B68012283F841208C
:10258C007B68012283F842207B68012283F8432078
:10259C007B68012283F844207B68012283F8452064
:1025AC007B68012283F83D20002318460837BD467E
:1025BC0080BD000080B485B000AF78607B6893F874
:1025CC003D30DBB2012B01D0012335E07B680222C8
:1025DC0083F83D207B681B68DA687B681B6842F0D7
:1025EC000102DA607B681B68164A934209D07B684B
:1025FC001B68B3F1804F04D07B681B68124A93426E
:10260C0011D17B681B689B6803F00703FB60FB68B8
:10261C00062B10D07B681B681A687B681B6842F01D
:10262C0001021A6007E07B681B681A687B681B68EC
:10263C0042F001021A60002318461437BD4680BCD4
:10264C00704700BF002C01400004004080B582B0F0
:10265C0000AF78607B681B681B6903F00203022BD8
:10266C0022D17B681B68DB6803F00203022B1BD1B1
:10267C007B681B686FF002021A617B6801221A7773
:10268C007B681B689B6903F00303002B03D07868FD
:10269C0000F0B4F905E0786800F0A7F9786800F06C
:1026AC00B6F97B6800221A777B681B681B6903F0FC
:1026BC000403042B22D17B681B68DB6803F0040342
:1026CC00042B1BD17B681B686FF004021A617B68BA
:1026DC0002221A777B681B689B6903F44073002BFA
:1026EC0003D0786800F08AF905E0786800F07DF98D
:1026FC00786800F08CF97B6800221A777B681B687D
:10270C001B6903F00803082B22D17B681B68DB686C
:10271C0003F00803082B1BD17B681B686FF00802C1
:10272C001A617B6804221A777B681B68DB6903F0EB
:10273C000303002B03D0786800F060F905E078689B
:10274C0000F053F9786800F062F97B6800221A7780
:10275C007B681B681B6903F01003102B22D17B686C
:10276C001B68DB6803F01003102B1BD17B681B6804
:10277C006FF010021A617B6808221A777B681B685D
:10278C00DB6903F44073002B03D0786800F036F952
:10279C0005E0786800F029F9786800F038F97B6872
:1027AC0000221A777B681B681B6903F00103012B5D
:1027BC000ED17B681B68DB6803F00103012B07D18A
:1027CC007B681B686FF001021A617868FEF7E8FD00
:1027DC007B681B681B6903F08003802B0ED17B6820
:1027EC001B68DB6803F08003802B07D17B681B68B8
:1027FC006FF080021A61786800F06BFA7B681B68D6
:10280C001B6903F04003402B0ED17B681B68DB680F
:10281C0003F04003402B07D17B681B686FF040022C
:10282C001A61786800F0FCF87B681B681B6903F080
:10283C002003202B0ED17B681B68DB6803F0200380
:10284C00202B07D17B681B686FF020021A61786817
:10285C0000F036FA00BF0837BD4680BD80B584B0A5
:10286C0000AF786039600023FB737B6893F83C30D1
:10287C00012B01D10223B4E07B68012283F83C20B8
:10288C007B68022283F83D207B681B689B68BB60D9
:10289C00BB6823F07703BB60BB6823F47F43BB604A
:1028AC007B681B68BA689A603B681B68B3F5005F6D
:1028BC003ED0B3F5005F00F28780B3F5805F00F087
:1028CC008680B3F5805F7FD8702B1AD0702B7BD8A5
:1028DC00602B50D0602B77D8502B3CD0502B73D81A
:1028EC00402B58D0402B6FD8302B64D0302B6BD86A
:1028FC00202B60D0202B67D8002B5CD0102B5AD00B
:10290C0062E07B6818683B6899683B685A683B686A
:10291C00DB6800F05EF97B681B689B68BB60BB687A
:10292C0043F07703BB607B681B68BA689A604FE022
:10293C007B6818683B6899683B685A683B68DB6839
:10294C0000F047F97B681B689A687B681B6842F447
:10295C0080429A603CE07B6818683B6859683B6829
:10296C00DB681A4600F0BEF87B681B6850211846DD
:10297C0000F015F92CE07B6818683B6859683B68D7
:10298C00DB681A4600F0DCF87B681B68602118468F
:10299C0000F005F91CE07B6818683B6859683B68D7
:1029AC00DB681A4600F09EF87B681B6840211846CD
:1029BC0000F0F5F80CE07B681A683B681B68194658
:1029CC00104600F0ECF803E00123FB7300E000BFBD
:1029DC007B68012283F83D207B68002283F83C2031
:1029EC00FB7B18461037BD4680BD80B483B000AF6A
:1029FC00786000BF0C37BD4680BC704780B483B094
:102A0C0000AF786000BF0C37BD4680BC704780B407
:102A1C0083B000AF786000BF0C37BD4680BC7047F8
:102A2C0080B483B000AF786000BF0C37BD4680BC6B
:102A3C007047000080B485B000AF786039607B6867
:102A4C001B68FB607B68254A934207D07B68B3F117
:102A5C00804F03D07B68224A934208D1FB6823F055
:102A6C007003FB603B685B68FA681343FB607B6830
:102A7C001A4A934207D07B68B3F1804F03D07B682E
:102A8C00174A934208D1FB6823F44073FB603B6800
:102A9C00DB68FA681343FB60FB6823F080023B6839
:102AAC005B691343FB607B68FA681A603B689A6841
:102ABC007B68DA623B681A687B689A627B68074AB3
:102ACC00934203D13B681A697B681A637B680122C5
:102ADC005A6100BF1437BD4680BC7047002C0140C2
:102AEC000004004080B487B000AFF860B9607A6031
:102AFC00FB681B6A7B61FB681B6A23F00102FB68A5
:102B0C001A62FB689B693B613B6923F0F0033B61F4
:102B1C007B681B013A6913433B617B6923F00A0311
:102B2C007B617A69BB6813437B61FB683A699A6184
:102B3C00FB687A691A6200BF1C37BD4680BC7047BF
:102B4C0080B487B000AFF860B9607A60FB681B6A2C
:102B5C007B61FB681B6A23F01002FB681A62FB683E
:102B6C009B693B613B6923F470433B617B681B03AE
:102B7C003A6913433B617B6923F0A0037B61BB681B
:102B8C001B017A6913437B61FB683A699A61FB68A4
:102B9C007A691A6200BF1C37BD4680BC704780B48E
:102BAC0085B000AF786039607B689B68FB60FB6820
:102BBC0023F07003FB603A68FB68134343F0070390
:102BCC00FB607B68FA689A6000BF1437BD4680BC16
:102BDC00704780B487B000AFF860B9607A603B6032
:102BEC00FB689B687B617B6923F47F437B613B685B
:102BFC001A027B681A43BB6813437A6913437B61DF
:102C0C00FB687A699A6000BF1C37BD4680BC704770
:102C1C0080B485B000AF786039607B6893F83C3045
:102C2C00012B01D1022341E07B68012283F83C2077
:102C3C007B68022283F83D207B681B685B68FB6025
:102C4C007B681B689B68BB60FB6823F07003FB60B0
:102C5C003B681B68FA681343FB607B681B68FA6867
:102C6C005A607B681B68144A934209D07B681B68C6
:102C7C00B3F1804F04D07B681B68104A93420CD18F
:102C8C00BB6823F08003BB603B685B68BA68134386
:102C9C00BB607B681B68BA689A607B68012283F80A
:102CAC003D207B68002283F83C2000231846143713
:102CBC00BD4680BC704700BF002C014000040040A2
:102CCC0080B483B000AF786000BF0C37BD4680BCC9
:102CDC00704780B483B000AF786000BF0C37BD463E
:102CEC0080BC704703460244934200D1704703F8FE
:102CFC00011BF9E770B500260C4D0D4C641BA4109C
:102D0C00A64209D100F01AF800260A4D0A4C641BA1
:102D1C00A410A64205D170BD55F8043B9847013666
:102D2C00EEE755F8043B98470136F2E7842D00088E
:102D3C00842D0008842D0008882D0008F8B500BFEC
:102D4C00F8BC08BC9E467047F8B500BFF8BC08BC80
:042D5C009E467047D8
:102D6000000000000000000001020304060708093B
:102D700002030405060708090A0B0C0D0E0F1010BC
:042D8000010200004C
:042D84003101000811
:042D88000D01000831
:102D8C000100000001000000010000000100000033
:102D9C00C80000000100000001000000010000005C
:102DAC0001000000640000000100000001000000B0
:102DBC000100000001000000C80000000024F40025
:082DCC001000000001000000EE
:04000005080016B128
:00000001FF
